:020000040800F2
:10000000C80600208901000845100008BB0C000844
:10001000210F00088F02000887150008000000006B
:10002000000000000000000000000000491400086B
:10003000DB02000800000000471400084B14000811
:10004000A3010008A3010008A3010008A301000800
:10005000A3010008A3010008A3010008A3010008F0
:10006000A3010008A3010008A3010008A3010008E0
:10007000A3010008A3010008A3010008A3010008D0
:10008000A3010008A3010008A3010008A3010008C0
:10009000A3010008A3010008A3010008A3010008B0
:1000A000A3010008A3010008A3010008A3010008A0
:1000B000A3010008A3010008A3010008A301000890
:1000C000A3010008A3010008A3010008A301000880
:1000D000A3010008A3010008A3010008A301000870
:1000E000A3010008A3010008A301000800F002F822
:1000F00000F03AF80AA090E8000C82448344AAF188
:100100000107DA4501D100F02FF8AFF2090EBAE885
:100110000F0013F0010F18BFFB1A43F0010318473B
:10012000F81F000018200000103A24BF78C878C1DA
:10013000FAD8520724BF30C830C144BF04680C60ED
:10014000704700000023002400250026103A28BF35
:1001500078C1FBD8520728BF30C148BF0B60704739
:100160001FB51FBD10B510BD00F058F81146FFF7C0
:10017000F7FF01F037FA00F076F803B4FFF7F2FF6B
:1001800003BC00F07DF8000009488047094800479B
:10019000FEE7FEE7FEE7FEE7FEE7FEE7FEE7FEE737
:1001A000FEE7FEE704480549054A064B7047000094
:1001B000AD140008ED000008C8000020C8060020AB
:1001C000C8020020C80200204FF0000200B513460C
:1001D00094469646203922BFA0E80C50A0E80C5067
:1001E000B1F12001BFF4F7AF090728BFA0E80C5018
:1001F00048BF0CC05DF804EB890028BF40F8042B11
:1002000008BF704748BF20F8022B11F0804F18BF7D
:1002100000F8012B7047704770477047754600F033
:100220002BF8AE4605006946534620F00700854688
:1002300018B020B5FFF7B6FFBDE820404FF000062C
:100240004FF000074FF000084FF0000B21F00701BE
:10025000AC46ACE8C009ACE8C009ACE8C009ACE801
:10026000C0098D46704710B50446AFF300802046A4
:10027000BDE81040FFF781BF0048704764000020D0
:1002800001491820ABBEFEE7260002007047FEE7DA
:1002900010B501F069F8CC2001F0C7F8BDE81040B6
:1002A000442001F0C2B810B501F05EF8CC2001F096
:1002B000BCF8BE2001F0B9F801F090F8044601F056
:1002C0008DF844EA002001F05DFA6FF0030201F0BE
:1002D000DDFBBDE8104001F01BBA704772B6FEE7C7
:1002E00070B5044600F008F90546601C02D00448C9
:1002F0000078044400F000F9401BA042FAD370BD1E
:100300000C0000202DE9F84FDFF8B891002409F126
:10031000040A0AF1040B23460F270BF1040EC9E06F
:100320000125A5402A40AA427DD1674ED1F804C0DC
:10033000ACEB0608B44532D014DCBCF1030F3AD064
:1003400009DCBCF1000F2AD0BCF1010F1CD0BCF1BC
:10035000020F31D11DE0BCF1110F17D0BCF1120F0B
:100360002AD119E0B8F5881F19D006DCB8F5803F0E
:1003700015D0B8F5801F1FD111E0B8F5001F0ED0C1
:10038000B8F5041F18D10AE0CB6815E0CB681B1D37
:1003900012E0CB6808330FE0CB680C330CE08B68BD
:1003A0002BB1012B4FF0080303D0456104E0042377
:1003B00002E0056100E00023FF2A01D8064601E0C3
:1003C00000F104064FEA840501D9A5F12005D6F80D
:1003D000008007FA05FC28EA0C0803FA05F548EA4C
:1003E0000508C6F800804D68ED0062D5374DAE694E
:1003F00046F00106AE61AD6924F0030605F0010583
:100400000095334D06EB050CDCF80850A607360FB7
:1004100007FA06F825EA0805DFF8B880404503D159
:100420004FF0000817E044E0DFF8AC80404502D10F
:100430004FF001080FE0DFF8A480404502D14FF0F3
:10044000020808E0DFF89880404502D14FF0030829
:1004500001E04FF0040808FA06F848EA0508CCF86D
:1004600008804D68D9F80060ED034D4601D516436C
:1004700000E096432E604D68DAF80060AD03554603
:1004800001D5164300E096432E604D68DBF800600E
:10049000ED025D4601D5164300E096432E604D689F
:1004A000DEF80060AD02754601D5164300E09643C4
:1004B0002E60641C0D682A46E5407FF431AFBDE82C
:1004C000F88F0000000401400000111000100240ED
:1004D0000000014000080140000C014000100140F4
:1004E000001401408068084000D0012070470AB124
:1004F000016170470904FBE701488068704700000C
:100500000C00002002488168027811448160704725
:100510000C000020074810B5016841F0100101608F
:10052000032000F067F80F2000F006F800F024F830
:10053000002010BD0020024070B50D4D04464FF460
:100540007A712878B1FBF0F00A490968B1FBF0F044
:1005500000F0BEFA48B9102C07D200222146501EE6
:1005600000F028F800206C6070BD012070BD000014
:100570000C000020180000200C4808B5816941F0EB
:1005800001018161816901F001010091C16941F0BE
:100590008051C161C06900F08050009004484168FA
:1005A00021F0E06141F00071416008BD001002409F
:1005B00000000140F0B40E4B1B680C46C3F302234D
:1005C000C3F10705042D00D90425191D072901D2FF
:1005D000002300E0DB1E012606FA05F1491E21403A
:1005E00099409E40761E16403143F0BC00F0CCBFCF
:1005F0000CED00E0064900F0070208684FF6FF0323
:10060000184040EA0220034A104308607047000087
:100610000CED00E00000FA052DE9F0470F4605005B
:1006200061D0434E306800F00700B84209D230680C
:1006300020F0070038433060306800F00700B8420F
:1006400051D128683B4C810712D5400703D560681B
:1006500040F4E06060602878000703D5606840F4EB
:10066000605060606068A96820F0F0000843606036
:100670002878C00728D06868012810D0216802288F
:1006800010D0890700292EDA616821F003010143A7
:100690006160FFF731FF804641F288390DE0216843
:1006A0008903EFE78901EDE7FFF726FFA0EB0801DB
:1006B000494502D90320BDE8F0876068696800F009
:1006C0000C00B0EB810FEFD1306800F00700B842AA
:1006D0000BD9306820F0070038433060306800F0F4
:1006E0000700B84201D00120E5E72878400705D58A
:1006F0006068E96820F4E0600843606028780007DB
:1007000006D56068296920F4605040EAC100606045
:1007100000F018F86168084AC1F30311515CC84041
:100720000649086006480068FFF706FF0020C2E798
:100730000020024000100240181B00081800002092
:100740001000002012A185B00FC98DE80F0014A081
:10075000144A006804905168134801F00C03042BFC
:1007600010D0082B0ED1C1F38343C9031DF8030039
:100770000AD5516804AAC1F34041515C0A4A50436A
:10078000B0FBF1F005B0704708494843FAE70000B4
:1007900002030405060708090A0B0C0D0E0F1010C2
:1007A000010200000010024000127A0000093D0022
:1007B0002DE9F84F040070D02078C04DC00749D013
:1007C0006868C0F38100012807D06868C0F3810021
:1007D000022809D16868C00306D52868800339D586
:1007E00060680028E7D035E06068B0F5803F0BD046
:1007F00010B1B0F5A02F11D0286820F48030286007
:10080000286820F4802002E0286840F480302860C6
:10081000606890B1FFF770FE06460AE0286840F471
:1008200080202860F0E700BFFFF766FE801B642889
:1008300073D828688003F7D50CE0FFF75DFE064605
:1008400005E000BFFFF758FE801B6428F0D8286839
:100850008003F7D420789A4E80074FF001094FF0BB
:10086000000839D5686810F00C0F07D06868C0F32D
:100870008100022809D16868C00306D4286880076F
:1008800014D52069012808D110E02069B0B1C6F85C
:100890000090FFF731FE074605E00AE1FFF72CFE66
:1008A000C01B0228C4D828688007F7D5286861696A
:1008B00020F0F80040EAC10028600DE0C6F8008092
:1008C000FFF71AFE074604E0FFF716FEC01B0228DA
:1008D00023D828688007F7D4207800072CD57948DA
:1008E000A169D9B1C0F80090FFF706FE074604E001
:1008F000FFF702FEC01B02280FD8686A8007F7D5F1
:1009000071484FF4FA510068B0FBF1F0009000BF5D
:100910000098411E0091FAD20EE080E0C0F80080FD
:10092000FFF7EAFD074604E0FFF7E6FDC01B0228DB
:1009300075D8686A8007F7D42078400760D5E869E1
:100940000027C00008D4E86940F08050E861E869F9
:10095000012700F0805000905C480168C90513D45D
:100960000168834641F480710160FFF7C5FD82464E
:1009700006E000BFFFF7C0FDA0EB0A0064284ED8D8
:10098000DBF80000C005F5D5E06801280AD008B101
:10099000052813D0286A20F001002862286A20F078
:1009A000040002E0286A40F001002862E06841F299
:1009B000883B98B1FFF7A0FD82460BE0286A40F023
:1009C00004002862EEE700BFFFF796FDA0EB0A01E6
:1009D00059455AD8286A8007F6D50CE0FFF78CFDF8
:1009E000824605E0FFF788FDA0EB0A0159454CD887
:1009F000286A8007F6D41FB1E86920F08050E861CA
:100A0000E06988B36968C1F38101022944D00228F2
:100A1000C6F8608004D0FFF76FFD044638E034E08C
:100A2000FFF76AFD074604E0FFF766FDC01B0228DA
:100A30002BD828688001F7D4206AB0F5803F05D113
:100A40006868A16820F4003008436860D4E90801B0
:100A50000843696821F4741108436860C6F860901F
:100A6000FFF74AFD044606E025E000BFFFF744FD1E
:100A7000001B022809D828688001F7D51BE000BFB9
:100A8000FFF73AFD001B022802D90320BDE8F88FCA
:100A900028688001F4D40EE00128F7D06868226A43
:100AA00000F48031914204D1616A00F470108842F0
:100AB00001D00120EAE70020E8E700000010024032
:100AC00000004242800442421800002000700040B2
:100AD00010B5401EB0F1807F01D3012010BD4FF052
:100AE000E02460610F21601700F04EFD0020A0613E
:100AF00007202061002010BD70B590F83C20012A2D
:100B000026D0012480F83C40022280F83D20036872
:100B10005A689D6822F070060A6832435A600D4B8D
:100B200002689A4208D0B2F1804F05D00A4B9A422F
:100B300002D00A4B9A4204D1496825F08003194338
:100B4000916080F83D40002180F83C10084670BD5F
:100B5000022070BD002C014000040040000800404D
:100B600010B5040003D094F83D0010B107E0012057
:100B700010BD002084F83C00204600F01FF8022041
:100B800084F83D00211D206800F092FC012084F8CB
:100B9000460084F83E0084F83F0084F8400084F862
:100BA000410084F8420084F8430084F8440084F84B
:100BB000450084F83D00002010BD000008B5006825
:100BC0000649884208D10648C16941F00401C16163
:100BD000C06900F00400009008BD0000000800405B
:100BE0000010024070B5044690F83C00012817D070
:100BF000012584F83C50022084F83D00206882687A
:100C000022F0770222F47F4282600868502830D0B8
:100C10000DDC20284DD005DC98B310283BD148E0EE
:100C2000022070BD302844D0402834D139E06028FB
:100C300028D0702806D0B0F5805F2CD0B0F5005FCA
:100C400029D10AE0CB68D1E90121206800F066FCD7
:100C50002068816841F0770109E0CB68D1E9012182
:100C6000206800F05BFC2068816841F4804181606D
:100C700011E0CA684968206800F062FC50212068D1
:100C800007E016E0CA684968206800F06AFC602145
:100C9000206800F04DFC84F83D50002084F83C00B2
:100CA00070BDCA684968206800F04AFC402120688D
:100CB000EFE7226801461046EBE7FEE72DE9F04733
:100CC0000746DDE9089A1D4690460E463B2000F097
:100CD0005BF804463C2000F057F840EA04203880D6
:100CE0003D2000F051F804463E2000F04DF840EA67
:100CF000042030803F2000F047F80446402000F0F8
:100D000043F840EA0420A8F80000432000F03CF833
:100D10000446442000F038F840EA042028804520AA
:100D200000F032F80446462000F02EF840EA042095
:100D3000A9F80000472000F027F80446482000F0FA
:100D400023F840EA0420AAF80000BDE8F08710B5B7
:100D500000F0E8F801216B2000F035F800216C204C
:100D600000F031F80921192000F02DF806211A2091
:100D700000F029F818211B2000F025F81821BDE803
:100D800010401C2000F01FB810B5044600F02EF9EA
:100D9000D02000F017F900F0DDF8204600F012F93D
:100DA00000F0D8F800F022F9D12000F00BF900F0A3
:100DB000D1F800F0DEF80446012000F0F8F800F069
:100DC00024F9204610BD70B50D46044600F00EF91A
:100DD000D02000F0F7F800F0BDF8204600F0F2F85F
:100DE00000F0B8F8284600F0EDF800F0B3F8BDE8E0
:100DF000704000F00AB900002DE9F04186B00024EF
:100E00002A480094019402940394816941F01001EE
:100E10008161816901F010010491816941F0200133
:100E20008161816901F020010491816941F008012B
:100E30008161816901F008010491816941F0040137
:100E4000816180691A4F00F004004FF4005504904E
:100E5000002229463846FFF74AFBDFF85880012276
:100E60004FF44C614046FFF742FB009503261125E5
:100E70000396CDE9015469463846FFF743FAB002BC
:100E8000CDE900050120CDE9020669464046FFF79D
:100E900039FAC020CDE90005CDE902466946404651
:100EA000FFF730FA06B0BDE8F08100000010024004
:100EB00000100140000C014010B586B00024174816
:100EC00000940194029403940494134905940160DE
:100ED0004721C0E901144FF6FF71C0E90314846192
:100EE000FFF73EFE08B1FFF7F9F94FF4805000908C
:100EF00069460A48FFF776FE08B1FFF7EFF9049458
:100F000004A906480594FFF7F7FD002801D0FFF774
:100F1000E5F906B010BD0000000800401C000020EC
:100F2000FEE7000010B5064C0122D1022046FFF773
:100F3000DEFA20460122BDE810409102FFF7D7BA41
:100F4000000C01404FF480610148FFF7CBBA00006C
:100F5000000C014010B5012000F06CF8012000F0F9
:100F600061F8FFF7EFFF0446002000F05BF8204631
:100F700010BD70B500258026012000F05BF800242C
:100F8000012000F04FF8FFF7DDFF012802D126FA1B
:100F900004F00543002000F045F8641CE4B2082C7E
:100FA000EED3641CE0B20828E6D3284670BD10B525
:100FB00000F040F8012000F035F8BDE810400020B6
:100FC00000F030B870B500240546802626FA04F0FB
:100FD000284000F02FF8012000F024F8002000F055
:100FE00021F8641CE4B2082CF0D370BD10B50120C8
:100FF00000F020F8012000F015F8002000F01AF8A9
:10100000BDE81040002000F00DB810B5002000F041
:1010100011F8012000F006F8BDE81040012000F0B2
:1010200009B8000002464FF400610148FFF75FBABB
:10103000000C014002464FF480610148FFF757BAA7
:10104000000C0140FEE770B500240021204600F0AE
:10105000ABF80025002000F06EF96D1CEDB2802D7C
:10106000F8D3641CE4B2082CEFD370BD10B5FFF7C1
:10107000C3FE012000F03EF9BDE81040012000F061
:1010800041B970B500240546802626FA04F02840B0
:1010900000F038F9012000F02DF9002000F02AF9C5
:1010A000641CE4B2082CF0D3012000F023F9BDE861
:1010B0007040002000F01EB910B5012000F022F9A8
:1010C000012000F017F9002000F01CF9BDE81040E5
:1010D000002000F00FB910B5002000F013F9012036
:1010E00000F008F9BDE81040012000F00BB910B580
:1010F00000204FF47A720021491C9142FCD3401C1D
:101100009042F8D3FFF7B2FFAE2000F003F9D520EC
:1011100000F000F9802000F0FDF8A82000F0FAF8B7
:101120003F2000F0F7F8D32000F0F4F8002000F0A2
:10113000F1F8402000F0EEF8A12000F0EBF8C82014
:1011400000F0E8F8DA2000F0E5F8122000F0E2F80C
:10115000812000F0DFF8CF2000F0DCF8D92000F08B
:10116000D9F8F12000F0D6F8DB2000F0D3F83020D9
:1011700000F0D0F8A42000F0CDF8A62000F0CAF8C6
:101180008D2000F0C7F8142000F0C4F8AF2000F064
:10119000C1F8BDE81040FFF756BF0246012000E04D
:1011A0005043491EFCD2704710B50C4640F0B000C9
:1011B00000F0B0F8102040EA141000F0ABF804F092
:1011C0000F00BDE8104000F0A5B800002DE9F04187
:1011D0000746CE004000083E801E15464FF0FF38FF
:1011E000F1B2C0B2FFF7E0FF1148002400EB051593
:1011F0002819A0F5805090F8000E00F09CF8641CAF
:10120000E4B2082CF4D308EB4700F1B2C0B2FFF708
:10121000CBFF00242819A0F5805090F8080E00F0AC
:101220008AF8641CE4B2082CF4D3BDE8F081000015
:10123000281B00082DE9F04700241D461646884665
:1012400081460A2713E0291B0A20491EFFF7A5FF44
:10125000B6FBF0F0B0FBF7F107FB110208EB04005E
:10126000C1B248463032FFF7B1FF641CE4B2AC4271
:10127000E9D3BDE8F0872DE9F0471E461400884603
:10128000814604D42B22FFF7A1FF254603E02D223F
:10129000FFF79CFF654200240A2714E0311B0A2057
:1012A000491EFFF77AFFB5FBF0F0B0FBF7F107FB43
:1012B000110208EB0400401CC1B248463032FFF76F
:1012C00085FF641CE4B2B442E8D3BDE8F0872DE9A1
:1012D000F04115460E460746002406E03019C1B21B
:1012E0003846FFF773FF641CE4B22A5D002AF5D18B
:1012F000BDE8F081024640210148FFF7F8B8000040
:10130000000C0140024680210148FFF7F0B80000C0
:10131000000C014010B50446FFF7CEFE7820FFF721
:10132000B0FE0020FFF7ADFE2046FFF7AAFEBDE8A5
:101330001040FFF7D0BE10B50446FFF7BDFE782081
:10134000FFF79FFE4020FFF79CFE2046FFF799FE27
:10135000BDE81040FFF7BFBE02464FF40051014800
:10136000FFF7C5B80010014070B50120FFF7F4FF8A
:101370000020FFF7F1FF4FF4FA75284600F014F94A
:101380000120FFF7E9FF462000F00EF94FF400516D
:101390000448FFF7A7F80446284600F005F9204660
:1013A00070BD00000010014010B50020FFF7D4FF11
:1013B000052000F0F9F80120FFF7CEFF052000F02E
:1013C000F3F84FF400510448FFF78CF8044632203C
:1013D00000F0EAF8204610BD001001402DE9F04170
:1013E00000252C465FF00107FFF7DEFF18B107FA72
:1013F00004F62E43F5B2641CE4B2082CF4D328465C
:10140000BDE8F08110B504460020FFF7A5FF0A20D3
:1014100000F0CAF82046FFF79FFF322000F0C4F822
:10142000BDE810400120FFF797BF70B500240546C6
:10143000012606FA04F02840FFF7E4FF641CE4B23A
:10144000082CF6D370BD70477047FFF75BB830B516
:101450008FB028216846FEF7B7FE14210AA8FEF7D0
:10146000B3FE01210804CDE90010002402940225F6
:101470000491CDE907504FF4E01009906846FFF75A
:1014800097F908B172B6FEE70F20CDE90A054FF4CF
:101490008060CDE90C4002210AA80E94FFF7BCF849
:1014A000002801D072B6FEE70FB030BD70470000D3
:1014B000F0B50268164B174C174D4FF08047984215
:1014C00005D0B84203D0A04201D0A84203D122F0F7
:1014D00070064A683243984205D0B84203D0A04211
:1014E00001D0A84203D122F44074CA6822434C6957
:1014F00022F08002224302608A68C2620A68826225
:10150000984201D10969016301214161F0BD0000E8
:10151000002C0140000400400008004010B5846821
:1015200042EA032224F47F440A432243826010BD2E
:10153000826822F070020A4342F00701816070471E
:1015400010B5036A046A24F001040462846924F07B
:10155000F00444EA021423F00A020A43846102629E
:1015600010BD10B5036A23F0100303628369046A97
:1015700023F4704343EA023224F0A00343EA01114A
:101580008261016210BDFEE70907090E002804DB35
:1015900000F1E02080F80014704700F00F0000F127
:1015A000E02080F8141D70470D4900220B685A6234
:1015B0000A68136843F00103136009684A6A8242AB
:1015C000FCD3086A41F21112104207D1086A921046
:1015D000104203D1086820F0010008607047000045
:1015E0001C0000201CB50025FEF794FFFFF77FFDCF
:1015F000FFF72DFFFFF700FCFFF75EFCFFF7A7FBEF
:101600000A20FEF76DFE00216B20FFF7DCFB0121B5
:1016100039A20846FFF75BFE38A201210220FFF73E
:1016200056FEDFF8E880DFF8DCA0DFF8DCB042F23D
:101630001077A8F10209A8F10A0400BFFEF728FEFE
:10164000FEF731FE0646504507D32D220321012027
:10165000FFF7BCFD86F0004604E02B2203210120A9
:10166000FFF7B4FD304600F0F3F8024603230421EF
:101670000120FFF7DFFD2E2207210120FFF7A6FD45
:101680005946304600F004F900F0E2F8B0FBF7F1FB
:1016900007FB1102042308210120FFF7CBFD1B4BA0
:1016A000CDE900981B1F9A1E911E881EFFF706FBAE
:1016B0000523B4F9042008210320FFF7DCFD0523EE
:1016C000B4F9082008210420FFF7D5FDB4F904007F
:1016D000002805DDB4F90800002801DA6D1CADB260
:1016E00005232A4604210220FFF7A4FD4FF4FA70D7
:1016F000FEF7F6FDA2E70000543A000053544550AF
:101700003A0000000000808000401C460A000020D3
:1017100021F00042A2F16052B2F5801F01F00043B7
:1017200028BFD2F17F6C0BD95FEA001C43EAC202EA
:1017300042EB507018BF704728BF20F0010070477F
:10174000B2F5801FBCBF184670474FEA410C1CF52C
:10175000001F02D2084600F062B970B500F029F807
:1017600000000089FFF7F6BF4FF00040A0F58000B1
:101770007047000002494FF0000000F055B900BF6B
:101780000000F87F10F0004248BF4042B0FA80F3FA
:1017900010FA03F10AD0C3F11D0303F580634FEA89
:1017A000415002EB035202EBD12170474FF0000091
:1017B00070470EF1020E2EF0030E5EF8046B3642F7
:1017C00005D4012A43EB030515F5001F12D80128A3
:1017D00041EB010C1CF5001F0CD80ED14FEAD17C57
:1017E00015F5001F0CEB4C0C0CF1020C08BF4CEB78
:1017F000D37C04E04FF0080C01E04FEAD37C0CEB03
:101800004C0526FA05F606F00706B6F1040C06D2DA
:101810000EEB860CBDE870404CF0010C6047DFE831
:101820000CF0090B02024FF000414FF00000A1F54F
:10183000002170BD19461046012851EB010418BF64
:10184000D4F5001484BF002001F0004170BD0000F9
:10185000C10DD1F19E0206DB4FEA002343F00043A5
:1018600023FA02F07047004207D54FEA4001B1F178
:10187000FE4F02D24FF00000704710B500F089F81B
:1018800049922480002070476FEA200070470000D2
:101890004FF47F0C1CEAD0121EBF1CEAD11392EA4F
:1018A0000C0F93EA0C0F00F0478090EA010F48BF3D
:1018B00042F480724FF0004C4CEA00204CEA0121C7
:1018C00002EB0302A0FB0113A2F50002002918BFDE
:1018D00043F001035B0028BF4FEA330342EB22428F
:1018E0005FEA132C4CEBC2502EBFBCEB436FB2F53A
:1018F0007C0F70474FEA036CBCF1004F08BF20F02B
:101900000100B2F57C0F38BF70470BD582F0FF02A3
:1019100012F5803FC8BF704700F1C040D8BF00F04B
:101920000040704700F5000C5FEA4C0C48BF704760
:10193000B0F1C04000F073B890EA010F0CEAD11387
:1019400048BF42F48072624538BF634504D280EAE2
:10195000010000F00040704710B500F01AF800BF19
:101960008900013E00F007B800F009B85FEA410CB9
:101970005FEA1C6C08D080EA010000F050B85FEA12
:10198000400C5FEA1C6CF6D14FF00040A0F58000DF
:1019900070470EF1020E2EF0030E5EF8044B244247
:1019A00004D44FEA4102B2F17F4F11D84FEA40030D
:1019B000B3F17F4F0CD80ED14FEAD07CB2F17F4FFC
:1019C0000CEB4C0C0CF1020C08BF4CEBD17C04E08E
:1019D0004FF0080C01E04FEAD17C0CEB4C0324FAE9
:1019E00003F404F00704B4F1040C06D20EEB840CEB
:1019F000BDE810404CF0010C6047DFE80CF0070830
:101A000002024FF00040A0F5800010BD08464200E1
:101A100018BFD2F1807288BF00F0004010BDFF21D6
:101A200041EAD050C00570470CF00F03092B08BFE6
:101A3000082000F059800A2B0BD0082B18BF7047E4
:101A400008BF1CF0400F0AD04FF000004FF000011B
:101A500070471CF0400F18BF4FF0004070471CF05B
:101A6000100F08D020F0704300F07F4242EAD3010B
:101A70004FEA4370704700F0604021F07F4242EA35
:101A8000000201F07F4040EA727070474FF0FF0C97
:101A90004CF4E06C1CEA11531CBF9CEA030C944507
:101AA000C2BFDA4201EB02517047002B0DD0BCF1EE
:101AB000000F0FD0002A01F00041A4BF41F0E04127
:101AC00041F07F614FF00000704701F000414FF09E
:101AD0000000704750EA01334FF09B0C18BF4CF0E8
:101AE000806C7FF447AE70471CF4801F11D01CF44B
:101AF000E02F03D06FEACC31490070474FF04050DF
:101B0000EFF3008222F0704242EA000282F3008882
:101B100070474FF000007047000000000000000018
:101B2000010203040607080900000000000000008D
:101B30000000000000000000000000F800000000AD
:101B4000000000333000000000100C06100C0600EE
:101B5000000000000000000040C07840C078400055
:101B6000043F04043F040400007088FC08300000B7
:101B7000001820FF211E0000F008F000E01800000F
:101B800000211C031E211E0000F0088870000000C8
:101B90001E2123241927211010160E00000000001A
:101BA0000000000000000000000000E01804020037
:101BB000000000071820400000020418E0000000A8
:101BC0000040201807000000404080F080404000A6
:101BD0000202010F01020200000000F000000000FC
:101BE0000101011F010101000000000000000000D0
:101BF00080B0700000000000000000000000000045
:101C000000010101010101010000000000000000CD
:101C10000030300000000000000000008060180468
:101C2000006018060100000000E010080810E00045
:101C3000000F102020100F00001010F8000000000E
:101C40000020203F20200000007008080888700055
:101C500000302824222130000030088888483000D5
:101C60000018202020110E000000C02010F80000F5
:101C700000070424243F240000F80888880808008E
:101C80000019212020110E0000E0108888180000A3
:101C9000000F112020110E0000380808C838080075
:101CA0000000003F000000000070880808887000F5
:101CB000001C222121221C0000E010080810E00076
:101CC0000000312222110F00000000C0C0000000FF
:101CD0000000003030000000000000800000000024
:101CE000000080600000000000008040201008001C
:101CF00000010204081020004040404040404000E5
:101D000004040404040404000008102040800000BF
:101D10000020100804020100007048080808F000C4
:101D20000000003036010000C030C828E810E00094
:101D30000718272423140B000000C038E00000001F
:101D4000203C23020227382008F888888870000089
:101D5000203F202020110E00C0300808080838005D
:101D6000071820202010080008F808080810E000D4
:101D7000203F202020100F0008F88888E808100075
:101D8000203F20202320180008F88888E808100049
:101D9000203F200003000000C03008080838000081
:101DA00007182020221E020008F808000008F80882
:101DB000203F210101213F20000808F80808000009
:101DC0000020203F2020000000000808F80808003C
:101DD000C08080807F00000008F888C028180800B4
:101DE000203F20012638200008F8080000000000ED
:101DF000203F20202020300008F8F800F8F80800E4
:101E0000203F003F003F200008F830C00008F808DD
:101E1000203F200007183F00E01008080810E000ED
:101E20000F10202020100F0008F808080808F00004
:101E3000203F210101010000E01008080810E00027
:101E40000F18242438504F0008F8888888887000BC
:101E5000203F2000030C302000708808080838005C
:101E60000038202121221C00180808F80808180052
:101E70000000203F2000000008F808000008F808D3
:101E8000001F202020201F000878880000C8380884
:101E9000000007380E010000F80800F80008F800FC
:101EA000033C0700073C0300081868808068180896
:101EB00020302C03032C30200838C800C838080014
:101EC0000000203F2000000010080808C838080063
:101ED0002038262120201800000000FE0202020007
:101EE0000000007F40404000000C30C000000000B7
:101EF000000000010638C00000020202FE000000DF
:101F0000004040407F000000000004020202040084
:101F100000000000000000000000000000000000C1
:101F200080808080808080800002020400000000A9
:101F300000000000000000000000808080800000A1
:101F40000019242222223F2008F80080800000008F
:101F5000003F112020110E00000000808080000052
:101F6000000E112020201100000000808088F80061
:101F7000000E112020103F20000080808080000093
:101F8000001F222222221300008080F088888818F7
:101F90000020203F20200000000080808080800002
:101FA000006B94949493600008F800808080000097
:101FB000203F210000203F20008098980000000072
:101FC0000020203F202000000000008098980000A2
:101FD00000C08080807F000008F8000080808000C2
:101FE000203F24022D302000000808F800000000E7
:101FF0000020203F202000008080808080808000A2
:10200000203F20003F20003F808000808080000033
:10201000203F210000203F200000808080800000C1
:10202000001F202020201F008080008080000000F2
:1020300080FFA12020110E00000000808080800021
:10204000000E112020A0FF80808080008080800012
:1020500020203F212000010000008080808080003F
:102060000033242424241900008080E080800000B4
:102070000000001F20200000808000000080800001
:10208000001F202020103F20808080000080808062
:1020900000010E30080601008080008000808080F2
:1020A0000F300C030C300F00008080008080800017
:1020B0000020312E0E312000808080000080808042
:1020C00080818E70180601000080808080808000F2
:1020D0000021302C2221300000000000807C020210
:1020E00000000000003F404000000000FF00000032
:1020F00000000000FF0000000002027C80000000E1
:102100000040403F000000000006010102020404FC
:10211000000000000000000038210008000000203E
:102120001C00000028010008542100081C000020A9
:10213000AC060000440100080000000000000000A0
:10214000000000000100000010000000000000007E
:042150000024F40073
:04000005080000ED02
:00000001FF
